:020000040000FA
:1000000090030010690100007101000073010000FD
:1000100000000000000000000000000000000000E0
:10002000000000000000000000000000750100005A
:1000300000000000000000007701000079010000CE
:100040007B0100007B0100007B0100007B010000C0
:100050007B0100007B0100007B0100007B010000B0
:100060007B0100007B0100007B0100007B010000A0
:100070007B0100007B0100007B0100007B01000090
:100080007B0100007B0100007B0100007B01000080
:100090007B0100002F0800007B0100007B010000B5
:1000A0007B0100007B0100007B0100007B01000060
:1000B0007B0100007B0100007B0100007B01000050
:1000C00000F002F800F040F80CA030C808382418FE
:1000D0002D18A246671EAB4654465D46AC4201D180
:1000E00000F032F87E460F3E0FCCB6460126334272
:1000F00000D0FB1AA246AB46334318471019000044
:1001000030190000103A02D378C878C1FAD85207E3
:1001100001D330C830C101D504680C6070470000BD
:100120000023002400250026103A01D378C1FBD813
:10013000520700D330C100D50B6070471FB5C046D1
:10014000C0461FBD10B510BD01F0DBFB1146FFF727
:10015000F5FF00F06CFD00F0BCF803B4FFF7F2FF10
:1001600003BC00F0C1F8000007488047074800477B
:10017000FEE7FEE7FEE7FEE7FEE7FEE70448054987
:10018000034A054B70470000D90A0000C100000077
:100190009001001090030010900100104648406844
:1001A0000121084344494860022044490863D220A1
:1001B00042494039C860D12008624862D0203F4996
:1001C0008039C8613E480068042108433C49086002
:1001D0003C483D490860022008614860704702467B
:1001E0000420C04305231B0718615000364B98605C
:1001F0001846816000BF3448C06804231842FAD012
:1002000031488068C1B200BF2F48C068042318423B
:10021000FAD02D488068C1B2042005231B0718615D
:100220000120704701460422D24305231B071A61AF
:100230004A0080231A43244B9A6000229A6000BF30
:10024000214AD26804231A42FAD01F4A9268D0B2D7
:1002500000BF1D4AD26804231A42FAD01A4A926893
:10026000D0B2042205231B071A61704702460420FE
:10027000C04305231B071861500080231843124B0D
:1002800098600020986000BF0F48C068042318429F
:10029000FAD00D488068087000BF0B48C06804237E
:1002A0001842FAD0084880680870042005231B070C
:1002B0001861012070470000008004408040044025
:1002C00000800050C70200000000044070477047E3
:1002D00070470446C046C0462046FFF73EFF000078
:1002E000004870472C01001001491820ABBEFEE702
:1002F000260002007047000000000000FFFFFFFF23
:1003000010B5FFF74BFFF948006820210843F74973
:10031000086010BD002804D12021C943F44A1160AF
:1003200002E02021F24A11607047F8B507460C46FA
:10033000154602260020009069463846FFF796FFD2
:100340000646002E0BD0002D04D0694608782043C5
:10035000009006E069460878A043009001E030462E
:10036000F8BD684601783846FFF739FF0646304643
:10037000F6E710B52020C043DD490860142000F0E6
:1003800042FC2020DA490860142000F03CFC10BD3B
:1003900008B5FFF7EEFF0C20FFF744FF0090102197
:1003A0000C20FFF71CFF0C20FFF73CFF0090F4210E
:1003B0002720FFF714FF2720FFF734FF009068463F
:1003C0000078F42801D0002008BD0120FCE770B5BA
:1003D00004462046FFF726FF0546284670BD70B547
:1003E0000546002405E02046FFF71CFF2855601C49
:1003F000C4B2402CF7DB012070BD70B504460D4639
:1004000029462046FFF7EBFE012070BD704770477C
:10041000F8B505460C462846FFF7D9FF20430746A6
:1004200039462846FFF7DBFE06463046F8BD10B5D4
:1004300080210A20FFF7ECFF0A20FFF7F3FE0028D7
:1004400001D1012010BD0020FCE7F8B505460C469F
:100450002846FFF7BCFFA043074639462846FFF76A
:10046000CCFF06463046F8BD70B504461420FFF7B1
:10047000AEFF8007800FA04201D1012070BD002C8B
:1004800004D103211420FFF7E0FF0546012C04D11D
:1004900001211420FFF7D9FF0546022C04D10221C7
:1004A0001420FFF7D2FF0546032C04D103211420AA
:1004B000FFF7AEFF05467D20C00000F0A4FB2846F4
:1004C000DCE7FFB583B00646002002900190009063
:1004D0000C2E06D00E2E09D1122001901020009073
:1004E00005E0772001903020009000E000BF00BFC1
:1004F00080220198104301460220FFF77EFF8021F1
:100500000420FFF7A2FF00210120FFF776FF8021E2
:100510000A20FFF77DFF002505E00498415D0920D2
:10052000FFF76BFF6D1C05988542F6D3314601201D
:10053000FFF763FF0C2E03D180210D20FFF768FF2A
:100540006C4D00BF0420FFF742FF04466D1E002DD6
:1005500005D0E007C00F02D100980442F2D08021FC
:100560000D20FFF772FF002D37D00620FFF72FFF79
:100570001B2108422FD10120029001982040C00782
:10058000C00F01D0EE2002900C2E26D10A20FFF7DA
:100590001EFF04460C20FFF71AFF47077F0F002FAE
:1005A00005D0601EC000C1190C98016002E0E10096
:1005B0000C980160002C00D10124402C00DD402467
:1005C000002505E00920FFF702FF069948556D1C3C
:1005D000A542F7D301E00020029080210D20FFF713
:1005E00034FF029807B0F0BD70B506460025002420
:1005F0000DE06A00511C32463F4B5A43501E01F039
:100600008CF804463D498C4200D203E06D1C3C4806
:100610008542EED300BFA4B22804010E2A20FFF7C2
:10062000F7FEE9B22B20FFF7E8FE210A2C20FFF7A6
:10063000E4FEE1B22D20FFF7E0FE012070BD10B511
:100640000446002C0FD110210C20FFF7E1FE4021C1
:100650001520FFF7DDFE00211220FFF7CEFE00215E
:100660001320FFF7CAFE012C17D110210C20FFF731
:10067000C4FE83211220FFF7C0FE83211320FFF761
:10068000BCFEF4212720FFF7B8FEF4212320FFF75A
:10069000B4FE00211520FFF7B0FE012010BD10B5FB
:1006A0000F210120FFF7A9FE10210C20FFF7B0FE5B
:1006B00010BD10B52020C0430D490860012000F096
:1006C000A2FA20200A490860012000F09CFA0120CB
:1006D00010BD10B50120FFF77AFE1021084211D09D
:1006E0000120FFF7B2FE002010BD00000080035083
:1006F0008000035060EA0000F8340000FFFF0000B3
:10070000FF0F000010210120FFF782FE0120EBE720
:100710000120704710B5044620468030C1B20F203A
:10072000FFF76BFE0F20FFF752FE10BD70B50446B9
:100730000D4620464030C1B20F20FFF75EFE28462E
:10074000C030C1B20F20FFF758FE70BD70B5202435
:1007500021460B20FFF743FD0546012D01D0002067
:1007600070BD0120FCE7000070B56F4800680121F2
:10077000090408436C4908606C48406A0121084339
:100780006A4948620846806A0121084367498862CD
:100790006548006801210903084363490860012096
:1007A000886183206249C8605F4881696148006848
:1007B00000F0B3FF05094B210902284600F0ADFF08
:1007C00084B22046E117090E09180912584A5160EF
:1007D000E117090E091809120902611A11600320B4
:1007E0001146C86087208860152001218140524A47
:1007F000116000BF012100F060F801204C49486001
:1008000070BD4B49086000BF494949694022114207
:10081000FAD0704730B503460C46002504E018783E
:100820005B1CFFF7EEFF6D1CA542F8D330BD002026
:10083000424908703BE03E4880680E210840042889
:1008400002D00C2831D11BE001203D490870002066
:100850003A4908700FE036480068C1B2374802785C
:100860000078401C354B1870364881541846007883
:10087000401C19460870314800780828EBDB15E069
:1008800001202F4908700AE029480068C1B22B48AE
:1008900002780078401C294B18702A48815424485B
:1008A0004069C007C00FEFD100E000BF00BF204883
:1008B0008068C007C00FBED0704710B5002819DA95
:1008C000214A03071B0F083B9B089B00D258830754
:1008D000DC0EFF23A3409A438B071B0E8407E40E14
:1008E000A3401A43184B0407240F083CA408A40093
:1008F0001A5118E0104A03231B02D21883089B00E8
:10090000D2588307DC0EFF23A3409A438B071B0EAC
:100910008407E40EA3401A43074B032424021B1947
:100920008408A4001A5110BD808004408040044017
:10093000008000400400001000E100E00100001011
:1009400000000010C80000101CED00E010B50024ED
:100950008948406AC005000F030000F0F1FF10094C
:100960000B0D0F11131517191B1D1F2123252729E7
:10097000824C1DE0824C1BE0824C19E0824C17E057
:10098000824C15E0824C13E0824C11E0824C0FE067
:10099000824C0DE0824C0BE0824C09E0824C07E077
:1009A000824C05E0824C03E0824C01E0824C00BFA7
:1009B00000BF7148406AC006800E811C204600F0CE
:1009C000ACFE04466C484030006B8007800F06D0B8
:1009D000012808D0022824D0032872D124E07748C7
:1009E000774908606DE06448403000688007800FF8
:1009F00006D0012808D002280AD003280FD10AE027
:100A00006E486F4908600AE06C486D49086006E06E
:100A10006B48046003E000206949086000BF00BF24
:100A20004FE0674804604CE053484030006880075E
:100A3000800F06D0012818D002282AD003283ED1E2
:100A400039E04D488068FF218131084203D05B487E
:100A50005B49086008E048488068C006C00E401C3A
:100A6000564948435649086029E043488068FF21B9
:100A70008131084203D051485149086008E03E489E
:100A80008068C006C00E401C4C4948434C49086071
:100A900015E039488068FF218131084202D048487A
:100AA000046007E034488068C006C00E401C604304
:100AB0004349086003E000204149086000BF00BFCF
:100AC00000BF00BF2C484030816B3D48006800F0FB
:100AD00024FE3B49086010BD10B53A48806B2021C8
:100AE000884338498863002023490862002401E0D4
:100AF00000BF641CC82CFBD300201F494031086094
:100B000001204860002048600120486000BF1A486A
:100B100040304068C007C00FF9D0032016498860F4
:100B20002848806B802188432649886300BF12488B
:100B3000C068C007C00FFAD003200F4940310863D6
:100B400001204863002048630120486300BF0A4831
:100B50004030406BC007C00FF9D00120064940313A
:100B60008863194804498031086001204861886120
:100B7000C861FFF7EBFE10BD00800440801A06003C
:100B800020A1070000350C00E0C81000C05C150073
:100B9000006A180040771B0080841E00C09121006D
:100BA000009F240040AC2700E032290020402C00A8
:100BB000604D2F0000D4300040E13300001BB7002F
:100BC0000400001000820440DF18010030B5024626
:100BD0001346002002E01D785B1C28180C46491EB5
:100BE000002CF8D130BD30B502460B461546002426
:100BF000002100BF02E0685C4440491C9942FAD3DE
:100C0000E043C0B230BD07E0002100E0491CFF22F4
:100C1000B9329142FAD3401E0028F5D17047000046
:100C200010B555480178401CFFF7F4FD10BD1FB505
:100C3000FFF752FF514800680121C90208434F499C
:100C400008604F480068042108434D4908604D483A
:100C50000068102188434B490860FFF785FDFFF7C6
:100C60004FFBFFF781FD4748006810218843454945
:100C70000860FFF78DFB03906946087B012877D158
:100C80004148424908604248FFF7BDFF0120C002C9
:100C90003E4908603A211F20FFF7A1FA0A20FFF71A
:100CA000B2FFFFF753FD00F07FF800F0E7F801A86E
:100CB00000F0CEFB68460079012811D1801F35492C
:100CC00008613348FFF79FFF042032490861002084
:100CD000FFF720FB0020304908703049087003E01E
:100CE0000420C0432B49086140E02D4800680028DB
:100CF00011D1012028490870284908700A20FFF7FF
:100D000091FA009027480078012801D1FFF702FBF3
:100D1000C820FFF778FF21480078012826D100205D
:100D20001E4908701F48007801281FD11420FFF7C2
:100D30006AFF02A9122000F091FC6846007A102197
:100D40000840102801D100F031FC6846007AC00745
:100D5000C00F0BD00C480D4908600D48FFF753FF3A
:100D60000120C0020949086000F0F5FBBDE7FFE77C
:100D7000002004B010BD000064000010008001508D
:100D80000080035000800050FFF7FFFF002001505B
:100D90001027000000000350510000105200001006
:100DA00000020050530000100020FC49087003208E
:100DB000FB4908700020FB490870FB4908700320BC
:100DC000FA4908700D20FA4908700B20F94908709B
:100DD000084600780F2814DD0220F7490870F5480E
:100DE0000078401EC006000EF449087008460078DE
:100DF0004010F3490870F14800780011F14908707B
:100E00002CE0EC480078072814DD0120EA4908703E
:100E1000E8480078401E0007000EE84908700846C0
:100E200000784010E6490870E44800780011E54970
:100E3000087013E00020E0490870DE480078401E8A
:100E40004007000EDD490870084600784010DC4974
:100E50000870DA4800780011DA490870D84800783C
:100E6000D84909784018D8490870D5480078D5493C
:100E70000978401AD54908700120704770B580255F
:100E800029460220FFF7ABF90446002C00D170BDC3
:100E9000802529460320FFF7A2F90446002C00D143
:100EA000F5E70221012000F0F8FB0446002C00D1F8
:100EB000EDE72221012000F0F0FB0446002C00D1D8
:100EC000E5E72121012000F0E8FB0446002C00D1D9
:100ED000DDE73021012000F0E0FB0446002C00D1CA
:100EE000D5E72821012000F0D8FB0446002C00D1D2
:100EF000CDE71B21022000F0D0FB0446002C00D1DE
:100F0000C5E70021032000F0C8FB0446002C00D1F7
:100F1000BDE7A94800780001A44A12788018C1B240
:100F2000072000F0BAFB0446002C00D1AFE7A04830
:100F30000178082000F0B1FB0446002C00D1A6E7A0
:100F40009C480178092000F0A8FB0446002C00D141
:100F50009DE708210A2000F0A0FB0446002C00D1E8
:100F600095E709210B2000F098FB0446002C00D1E6
:100F70008DE7964800788106890E0E2000F08DFBE3
:100F80000446002C00D182E79048007881110F20A0
:100F900000F083FB0446002C00D178E78A480078F3
:100FA0008106890E102000F078FB0446002C00D149
:100FB0006DE7854800788111112000F06EFB044632
:100FC000002C00D163E709210B2000F066FB0446EA
:100FD000002C00D15BE7012059E7F8B505467848B9
:100FE000007800F08BFC2946009000F0B7FC074623
:100FF00000F040FCC6B2724800788019724908704F
:101000006F480078801B7149087008460078810697
:10101000890E0E2000F041FB0446002C00D1F8BDE3
:101020006A48007881110F2000F037FB0446002C3D
:1010300000D1F4E7644800788106890E102000F0A2
:101040002CFB0446002C00D1E9E75F4800788111B1
:10105000112000F022FB0446002C00D1DFE7012024
:10106000DDE7F8B505460020287069460D2000F040
:10107000F5FA0446002C00D1F8BD684600788007D8
:10108000060E69460C2000F0E9FA0446002C00D157
:10109000F2E7684600788006800E8019C6B22E708E
:1010A0000221012000F0F9FA0446002C00D1E3E708
:1010B0002221012000F0F1FA0446002C00D1DBE7E8
:1010C0000120D9E7F8B5054600266946122000F050
:1010D000C5FA0446002C0FD16946122000F0BEFA72
:1010E00004466946122000F0B9FA04466946122007
:1010F00000F0B4FA04460124002C01D10020F8BD10
:1011000014E06946122000F0A9FA0446002C00D130
:101110000124002C01D10020F1E76420FFF773FDCA
:10112000701CC6B2092E01DD0020E8E76846007891
:101130002840A842E5D10120E1E770B5054602212B
:10114000012000F0AAFA0446002C00D170BD042151
:10115000012000F0A2FA0446002C00D1F6E722217B
:10116000012000F09AFA0446002C00D1EEE7242179
:10117000012000F092FA0446002C00D1E6E764203A
:10118000FFF741FD0420FFF79DFF0446002C00D12E
:101190000124002C1CD10020D8E7000055000010CD
:1011A00056000010570000105800001059000010A1
:1011B0005A0000105B000010540000105C0000108A
:1011C000600000105D0000105F0000105E00001065
:1011D0000421012000F061FA0446002C00D1B5E79B
:1011E0002846FFF73EFF0446002C00D1AEE7012061
:1011F000ACE7F8B507460C460020FE49087060E0F1
:10120000FC480078402210404001FB4A12788018C8
:101210004107490F052000F040FA0546002D00D196
:10122000F8BDF44800788106890E062000F035FAF2
:101230000546002D00D1F3E726782046FFF77DFF15
:101240000546002D00D1EBE72078EC49097888426B
:1012500032DA012038702078E8490978081AE7491D
:101260000978711A884203DA2078E449087022E08C
:10127000E2480670DF480078401EDE4908700846E4
:101280000078402210404001DB4A12788018410764
:10129000490F052000F001FA0546002D00D1BFE7F7
:1012A000D44800788106890E062000F0F6F905463C
:1012B000002D00D1B4E708E0CE480078401CCD49AD
:1012C0000870CC4800787F289ADB00BFC9480078B6
:1012D0007F2801DA0120A3E70020A1E770B50546C9
:1012E0000E460020C349087008460078402210408E
:1012F0004010C14A127880184107490F052000F0BC
:10130000CCF90446002C00D170BDBA4800788106A3
:10131000890E062000F0C1F90446002C00D1F3E745
:101320003046FFF70AFF0446002C00D1ECE701200D
:1013300028703078B149097888422CDA002028706A
:1013400027E0AF480078002801D1287022E0AC489F
:101350000078401EAA490870AA48007880000A4612
:1013600012788018C1B2042000F097F90446002CCE
:1013700000D1C9E73046FFF7E0FE0446002C00D15B
:10138000C2E730789D490978884202DD0120287043
:1013900000E0D6E75AE07F209649087008460078BA
:1013A000402210404001944A127880184107490FAA
:1013B000052000F072F90446002C00D1A4E78D4806
:1013C00000788106890E062000F067F90446002C9B
:1013D00000D199E73046FFF7B0FE0446002C00D15B
:1013E00092E70120287030788449097888422DDD01
:1013F0000020287028E083480078072802D10020C8
:10140000287022E07F480078401C7E49087008461A
:10141000007880007A4A12788018C1B2042000F067
:101420003CF90446002C00D16EE73046FFF785FEFC
:101430000446002C00D167E730787049097888426B
:1014400002DA0120287000E0D5E700BF01205BE749
:101450007CB505466B4800788000694A1278801890
:10146000C1B2042000F019F90446002C00D17CBD63
:10147000604800784022104040105F4A127880187F
:101480004107490F052000F008F90446002C00D15F
:10149000EDE701211C2000F000F90446002C00D1EA
:1014A000E5E7594800780001584A12788018C1B21F
:1014B000072000F0F2F80446002C00D1D7E754488A
:1014C0000178082000F0E9F80446002C00D1CEE7AE
:1014D00050480178092000F0E0F80446002C00D1C3
:1014E000C5E701A96846FFF7F9FE0446002C00D1C4
:1014F000BDE768460078002803D128706846007967
:10150000B5E70020287001A92846FFF772FE009079
:101510004148FFF762FD0446002C00D1A7E768466A
:10152000007800280CD12870002201211C2000F036
:10153000D3F80446002C00D199E76846007996E775
:10154000002201211C2000F0C7F80446002C00D125
:101550008DE701208BE738B569460D2000F07EF855
:10156000684600788007040E69460C2000F076F883
:10157000684600788006800E0019C4B22046FFF746
:1015800040F92020FFF73DF90221012000F085F805
:101590002221012000F081F86420FFF734FB0020B5
:1015A000FEF7B8FE6420FFF72EFB38BD1CB5694678
:1015B0000D2000F053F8684600788007040E694655
:1015C0000C2000F04BF8684600788006800E001969
:1015D000C4B22046FFF715F92020FFF712F9FFF7F4
:1015E000E3FBFFF74BFC01A8FFF732FF68460079E9
:1015F000012813E058000010550000106000001092
:101600005600001057000010540000105900001040
:101610005A0000105B000010CDCC4C3D11D1801F52
:101620000A4908610A48FFF7EEFA042007490861F1
:101630000020FEF76FFE002006490870064908707A
:1016400003E00420C043014908611CBD00000350B1
:10165000102700005100001052000010F8B5044699
:101660000D460F2720468030C1B2009168460178B0
:101670003846FEF7B4FD0646002E00D1F8BD0F2710
:1016800069463846FEF7F2FD0646002E00D1F5E722
:101690006846007828700120F0E7F8B504460D464A
:1016A0000F2720464030C0B2009038460099FEF720
:1016B00096FD0646002E00D1F8BD0F272846C03003
:1016C000C0B2009038460099FEF789FD0646002E0C
:1016D00000D1F1E70120EFE7F8B507460C461546C3
:1016E00069463846FFF7BAFF0646012E0BD1002D9A
:1016F00004D0694608782043009006E069460878DF
:10170000A043009001E00020F8BD6846017838460B
:10171000FFF7C3FF06463046F6E7002203098B4277
:101720002CD3030A8B4211D300239C464EE0034680
:101730000B433CD4002243088B4231D303098B4234
:101740001CD3030A8B4201D394463FE0C3098B426A
:1017500001D3CB01C01A524183098B4201D38B01C3
:10176000C01A524143098B4201D34B01C01A524166
:1017700003098B4201D30B01C01A5241C3088B42AB
:1017800001D3CB00C01A524183088B4201D38B0096
:10179000C01A524143088B4201D34B00C01A524138
:1017A000411A00D201465241104670475DE0CA0F0F
:1017B00000D04942031000D34042534000229C46CF
:1017C00003098B422DD3030A8B4212D3FC228901D9
:1017D00012BA030A8B420CD3890192118B4208D3AF
:1017E000890192118B4204D389013AD0921100E011
:1017F0008909C3098B4201D3CB01C01A5241830925
:101800008B4201D38B01C01A524143098B4201D351
:101810004B01C01A524103098B4201D30B01C01A7C
:101820005241C3088B4201D3CB00C01A52418308F6
:101830008B4201D38B00C01A5241D9D243088B424C
:1018400001D34B00C01A5241411A00D201466346EF
:1018500052415B10104601D34042002B00D5494253
:10186000704763465B1000D3404201B50020C0467C
:10187000C04602BD01460002CA1504D00123DB07A1
:101880001843002A09DB9E239A1A01D4D0407047DE
:10189000FF2248001206904201D900207047C81765
:1018A000C04370471F22030C02D10F2200041CD03A
:1018B000030E01D1083A0002030F01D1121F0001EB
:1018C000830F01D1921E8000002801DB521E4000D0
:1018D000D2055118021251181922904004D3491C04
:1018E000002801D14908490008467047C10FC907BF
:1018F00000D04042012292071143D3E7012189071A
:10190000D0E77546FEF7ECFCAE4605006946534647
:10191000C008C000854618B020B5FEF72FFC60BC9B
:1019200000274908B6460026C0C5C0C5C0C5C0C509
:10193000C0C5C0C5C0C5C0C5403D49008D46704743
:1019400030B47446641E2578641CAB4204D3635DD6
:101950005B00E31830BC18471D46F8E770B542003D
:1019600064414B005C41120E39D01B0E38D0FF2A67
:101970003CD0FF2B3AD040024902400A490A0600F7
:1019800045184E43000A090AD2184843ED017F3A30
:101990000104731A4019190C4318990F04D001213E
:1019A0005B0849075B1A521CD80904D3401CF50395
:1019B00001D19D0607D0FF2A08D2D50506D0E4073D
:1019C0002043401970BD0125A843F4E7002A01DC3B
:1019D000E00770BD2402FF202043C00570BD1B0E30
:1019E000FF2A03D0FF2B01D0E00770BDFF26450082
:1019F0003606B54206D84D00B54203D8D218FF2AA4
:101A000000D0E7E7004870BD0000C07F2C1A00003E
:101A1000000000106400000004010000901A0000A3
:101A2000640000102C0300002001000000000000F2
:101A3000006CDC02464D313735323020524541448E
:101A40004552204943204C5043313131342F3330FB
:101A5000312044454D4F2056312E30203230313424
:101A60002F30372F313600FFFFFFFFFFFF0102034A
:101A700004050607080910111213141516000001B9
:101A80000000000000000000000000000000000056
:04000005000000C136
:00000001FF
