:020000040000FA
:1000000090030010A1010000A9010000AB01000055
:1000100000000000000000000000000000000000E0
:10002000000000000000000000000000AD01000022
:100030000000000000000000AF010000B10100005E
:10004000B3010000B3010000B3010000B3010000E0
:10005000B3010000B3010000B3010000B3010000D0
:10006000B3010000B3010000B3010000B3010000C0
:10007000B3010000B3010000B3010000B3010000B0
:10008000B3010000B3010000B3010000B3010000A0
:10009000B3010000770A0000B3010000B3010000C3
:1000A000B3010000B3010000B3010000B301000080
:1000B000B3010000B3010000B3010000B301000070
:1000C00000F002F800F040F80CA030C808382418FE
:1000D0002D18A246671EAB4654465D46AC4201D180
:1000E00000F032F87E460F3E0FCCB6460126334272
:1000F00000D0FB1AA246AB4633431847E81800006D
:1001000008190000103A02D378C878C1FAD852070B
:1001100001D330C830C101D504680C6070470000BD
:100120000023002400250026103A01D378C1FBD813
:10013000520700D330C100D50B6070471FB5C046D1
:10014000C0461FBD10B510BD00F0B9F81146FFF74D
:10015000F5FF01F042F901F025FC03B4FFF7F2FFCF
:1001600003BC01F029FC000070B505460C4616469C
:1001700002E00FCC0FC5103E102EFAD2082E02D38B
:1001800003CC03C5083E042E07D301CC01C5361F9E
:1001900003E021782970641C6D1C761EF9D270BDB5
:1001A0000748804707480047FEE7FEE7FEE7FEE70F
:1001B000FEE7FEE704480549034A054B7047000087
:1001C000BD080000C1000000900100109003001065
:1001D00090010010334840680121084331494860CC
:1001E000022031490863D2202F494039C860D1200C
:1001F00008624862D0202C498039C8612B480068C9
:10020000042108432949086029482A490860022036
:1002100008614860704702460420C04305231B075D
:1002200018615000234B98601846816000BF214838
:10023000C06804231842FAD01E488068C1B200BFCB
:100240001C48C06804231842FAD01A488068C1B21A
:10025000042005231B071861012070470146042272
:10026000D24305231B071A614A0080231A43114B0E
:100270009A6000229A6000BF0E4AD26804231A4294
:10028000FAD00C4A9268D0B200BF0A4AD26804235E
:100290001A42FAD0074A9268D0B2042205231B07FB
:1002A0001A61704700800440804004400080005084
:1002B000C702000000000440704770477047754651
:1002C00001F076FBAE46050069465346C008C00003
:1002D000854618B020B5FFF76DFF60BC00274908C0
:1002E000B6460026C0C5C0C5C0C5C0C5C0C5C0C5CE
:1002F000C0C5C0C5403D49008D467047FFFFFFFFA8
:1003000010B5FFF767FFFC48006820210843FA4951
:10031000086010BD10B52020F8490860032000F0E7
:10032000ACFF2020C043F5490860052000F0A5FF80
:100330002020F24908600A2000F09FFF10BD08B598
:10034000FFF7E8FF0C20FFF789FF009010210C2039
:10035000FFF761FF0C20FFF781FF0090F4212720B9
:10036000FFF759FF2720FFF779FF009068460078D4
:10037000F42801D0002008BD0120FCE770B5044638
:100380002046FFF76BFF0546284670BD70B5054651
:10039000002405E02046FFF761FF2855601CC4B229
:1003A000402CF7DB012070BD70B504460D46294690
:1003B0002046FFF730FF012070BD70477047F8B549
:1003C00005460C462846FFF7D9FF20430746394625
:1003D0002846FFF720FF06463046F8BD10B58021BD
:1003E0000A20FFF7ECFF0A20FFF738FF002801D1B1
:1003F000012010BD0020FCE7F8B505460C46284654
:10040000FFF7BCFFA043074639462846FFF7CCFF5D
:1004100006463046F8BD70B504461420FFF7AEFF1F
:100420008007800FA04201D1012070BD002C04D1B3
:1004300003211420FFF7E0FF0546012C04D1012120
:100440001420FFF7D9FF0546022C04D10221142005
:10045000FFF7D2FF0546032C04D103211420FFF738
:10046000AEFF05467D20C00000F007FF2846DCE710
:10047000FFB583B0064600200290019000907F21D6
:100480000420FFF791FF80212A20FFF78DFF0C2E1B
:1004900006D00E2E09D1122001901020009005E008
:1004A000772001903020009000E000BF00BF802244
:1004B0000198104301460220FFF776FF002101203A
:1004C000FFF772FF80210A20FFF779FF002505E082
:1004D0000498415D0920FFF767FF6D1C0598854270
:1004E000F6D331460120FFF75FFF0C2E03D18021A8
:1004F0000D20FFF764FF824D00BF0420FFF73EFF91
:1005000004466D1E002D05D0E007C00F02D10098F3
:100510000442F2D080210D20FFF76EFF002D37D06E
:100520000620FFF72BFF1B2108422FD1012002904C
:1005300001982040C007C00F01D0EE2002900C2E81
:1005400026D10A20FFF71AFF04460C20FFF716FFFA
:1005500047077F0F002F05D0601EC000C1190C98FF
:10056000016002E0E1000C980160002C00D1012440
:10057000402C00DD4024002505E00920FFF7FEFEA9
:10058000069948556D1CA542F7D301E00020029062
:1005900080210D20FFF730FF029807B0F0BD70B545
:1005A0000646002500240DE06A00511C3246554BDA
:1005B0005A43501E01F049F9044653498C4200D277
:1005C00003E06D1C51488542EED300BFA4B228045D
:1005D000010E2A20FFF7F3FEE9B22B20FFF7E4FE1D
:1005E000210A2C20FFF7E0FEE1B22D20FFF7DCFE10
:1005F000012070BD10B50446002C0FD110210C2035
:10060000FFF7DDFE40211520FFF7D9FE0021122063
:10061000FFF7CAFE00211320FFF7C6FE012C2BD1E5
:1006200010210C20FFF7C0FE83211220FFF7BCFE33
:1006300083211320FFF7B8FE00211520FFF7B4FE39
:1006400055211820FFF7B0FE48212620FFF7ACFE09
:1006500087212520FFF7A8FE83212720FFF7A4FE8E
:1006600010212820FFF7A0FE38212320FFF79CFE51
:1006700010212920FFF798FE0A2000F0FEFD01203E
:1006800010BD10B50F210120FFF78EFE10210C20A8
:10069000FFF795FE10BD10B52020C0431749086034
:1006A000012000F0EAFD202014490860012000F03C
:1006B000E4FD012010BD10B50120FFF75FFE102101
:1006C000084204D00120FFF797FE002010BD102142
:1006D0000120FFF774FE0120F8E70120704710B5F4
:1006E000044620468030C1B20F20FFF75DFE0F2088
:1006F000FFF744FE10BD000000800350800003504F
:1007000030750000F8340000FFFF0000FF0F00000C
:1007100070B504460D4620464030C1B20F20FFF7A9
:1007200043FE2846C030C1B20F20FFF73DFE70BD2A
:1007300010B500248948406AC005000F030001F08D
:1007400042F910090B0D0F11131517191B1D1F214D
:1007500023252729824C1DE0824C1BE0824C19E0A6
:10076000824C17E0824C15E0824C13E0824C11E081
:10077000824C0FE0824C0DE0824C0BE0824C09E091
:10078000824C07E0824C05E0824C03E0824C01E0A1
:10079000824C00BF00BF7148406AC006800E811CB9
:1007A000204601F052F804466C484030006B800748
:1007B000800F06D0012808D0022824D0032872D147
:1007C00024E07748774908606DE06448403000686D
:1007D0008007800F06D0012808D002280AD00328FD
:1007E0000FD10AE06E486F4908600AE06C486D4915
:1007F000086006E06B48046003E000206949086077
:1008000000BF00BF4FE0674804604CE053484030F1
:1008100000688007800F06D0012818D002282AD04F
:1008200003283ED139E04D488068FF2181310842DC
:1008300003D05B485B49086008E048488068C00610
:10084000C00E401C564948435649086029E04348B9
:100850008068FF218131084203D051485149086026
:1008600008E03E488068C006C00E401C4C49484322
:100870004C49086015E039488068FF218131084201
:1008800002D04848046007E034488068C006C00EC3
:10089000401C60434349086003E000204149086070
:1008A00000BF00BF00BF00BF2C484030816B3D48F7
:1008B000006800F0CAFF3B49086010BD10B53A4817
:1008C000806B2021884338498863002023490862CF
:1008D000002401E000BF641CC82CFBD300201F498A
:1008E00040310860012048600020486001204860D5
:1008F00000BF1A4840304068C007C00FF9D003203D
:10090000164988602848806B80218843264988637F
:1009100000BF1248C068C007C00FFAD003200F49BB
:100920004031086301204863002048630120486388
:1009300000BF0A484030406BC007C00FF9D001200B
:100940000649403188631948044980310860012014
:1009500048618861C861FFF7EBFE10BD008004406C
:10096000801A060020A1070000350C00E0C8100026
:10097000C05C1500006A180040771B0080841E00D0
:10098000C0912100009F240040AC2700E0322900E4
:1009900020402C00604D2F0000D4300040E1330097
:1009A000001BB7000000001000820440DF180100A7
:1009B00070B56F4800680121090408436C4908605C
:1009C0006C48406A012108436A4948620846806AC7
:1009D00001210843674988626548006801210903CD
:1009E0000843634908600120886183206249C86028
:1009F0005F4881696148006800F027FF05094B21C5
:100A00000902284600F021FF84B22046E117090EB2
:100A100009180912584A5160E117090E09180912FC
:100A20000902611A116003201146C860872088609E
:100A3000152001218140524A116000BF012100F0C0
:100A400060F801204C49486070BD4B49086000BF08
:100A50004949496940221142FAD0704730B50346EE
:100A60000C46002504E018785B1CFFF7EEFF6D1CB8
:100A7000A542F8D330BD0020424908703BE03E4813
:100A800080680E210840042802D00C2831D11BE0D8
:100A900001203D49087000203A4908700FE03648AF
:100AA0000068C1B2374802780078401C354B187096
:100AB0003648815418460078401C19460870314861
:100AC00000780828EBDB15E001202F4908700AE0C8
:100AD00029480068C1B22B4802780078401C294B95
:100AE00018702A48815424484069C007C00FEFD1CC
:100AF00000E000BF00BF20488068C007C00FBED024
:100B0000704710B5002819DA214A03071B0F083B6C
:100B10009B089B00D2588307DC0EFF23A3409A4317
:100B20008B071B0E8407E40EA3401A43184B0407DF
:100B3000240F083CA408A4001A5118E0104A03230B
:100B40001B02D21883089B00D2588307DC0EFF23B8
:100B5000A3409A438B071B0E8407E40EA3401A435D
:100B6000074B032424021B198408A4001A5110BD4A
:100B7000808004408040044000800040000000105D
:100B800000E100E00500001004000010BC000010AF
:100B90001CED00E0FFB587B0064614461D46002E4A
:100BA00002D1602069460874012E02D16120694695
:100BB000087408988006010E684641742178817493
:100BC0006178C174A1780175E178417521798175E9
:100BD0006179C1752978017669784176A97881763D
:100BE000E978C1760120FFF7DAFCFFF7F7FB02A8EE
:100BF00003AB0C2204A900900E20FFF739FC074636
:100C0000012F0AD10820FFF7B9FB0821084202D0C2
:100C100001200BB0F0BD0020FBE70020F9E770B524
:100C200088B004460E460120FFF7B9FCA0216846B3
:100C300001744474FFF7D2FB02A803AB022204A99B
:100C400000900C20FFF714FC0546012D01D0012077
:100C500000E000206946097B0907090F0A2901D035
:100C6000012100E00021084302D0002008B070BD3F
:100C70000520FFF794FCFFF7B1FB02A803AB10229D
:100C8000314600900C20FFF7F3FB0546012D01D003
:100C9000012000E000206946097B0907090F0A29A5
:100CA00001D0012100E00021084301D00020DDE750
:100CB0000120DBE77FB505460C46E1786846017008
:100CC000A1784170617881702178C170E078C0436B
:100CD000C1B268460171A078C043C1B26846417193
:100CE0006078C043C1B2684681712078C043C1B208
:100CF0006846C171E1780172A178417261788172B0
:100D00002178C1720573E843C1B2684641738573A7
:100D1000E843C1B26846C17369462846FFF77FFFC2
:100D20000646304604B070BDFEB504460D460120AF
:100D3000FFF735FC3021684601724472FFF74EFB25
:100D400001A82B46022202A900900C20FFF790FB7D
:100D50000646012E01D0012000E0002001998029E3
:100D600001D0012100E00021084301D00020FEBD98
:100D70000120FCE77FB504460E460520FFF70FFC77
:100D8000C121684601734473FFF728FB01A802AB39
:100D9000022203A900900C20FFF76AFB0546012DF3
:100DA00001D0012000E000206946097A0907090FF7
:100DB0000A2901D0012100E00021084302D00020CF
:100DC00004B070BD0520FFF7EAFBFFF707FB01A8A1
:100DD00002AB0422314600900C20FFF749FB284665
:100DE000EEE77FB504460E460520FFF7D8FBC0218D
:100DF000684601734473FFF7F1FA01A802AB0222BF
:100E000003A900900C20FFF733FB0546012D01D00C
:100E1000012000E000206946097A0907090F0A2924
:100E200001D0012100E00021084302D0002004B0DD
:100E300070BD0520FFF7B3FBFFF7D0FA01A802ABA6
:100E40000422314600900C20FFF712FB2846EEE703
:100E50007FB504460520FFF7A2FBB0216846017369
:100E60004473FFF7BBFA01A802AB022203A900906A
:100E70000C20FFF7FDFA0546012D01D0012000E00E
:100E800000206946097A0907090F0A2901D00121C2
:100E900000E00021084302D0002004B070BD2846C5
:100EA000FBE77FB504460520FFF779FBC2216846C2
:100EB00001734473FFF792FA01A802AB022203A95F
:100EC00000900C20FFF7D4FA0546012D01D0012037
:100ED00000E000206946097A0907090F0A2901D0B4
:100EE000012100E00021084302D0002004B070BDC1
:100EF0000520FFF754FB002168460173417381739D
:100F0000C173FFF76BFA01A802AB042203A900909A
:100F10000C20FFF7ADFA2846E8E77FB504468021AC
:100F20001220FFF769FA80211320FFF765FA0821E4
:100F30001320FFF744FA08210846FFF75DFA07215E
:100F40000D20FFF731FA262003900120FFF727FB41
:100F5000FFF744FA01A802AB012203A900900C207C
:100F6000FFF786FA0546012D08D10198102805D112
:100F70006846007A20706846407A6070284604B05F
:100F800070BD7FB5044680211220FFF735FA80211D
:100F90001320FFF731FA08211320FFF710FA082178
:100FA0000846FFF729FA07210D20FFF7FDF9522027
:100FB00003900120FFF7F3FAFFF710FA01A802AB44
:100FC000012203A900900C20FFF752FA0546012DDB
:100FD00008D10198102805D16846007A207068462B
:100FE000407A6070284604B070BDF0B585B0064602
:100FF0000C4680211220FFF7FFF980211320FFF714
:10100000FBF908210846FFF7F7F900210D20FFF74B
:10101000CBF980210E20FFF7EFF9684606742021F6
:1010200041740120FFF7BBFAFFF7D8F901A802AB22
:10103000022204A900900C20FFF71AFA0746012F9C
:1010400013D1002504E002A8405D6055681CC5B2BC
:10105000052DF8DB207861784840A1784840E17898
:1010600048402179884200D00027384605B0F0BDBD
:10107000F7B586B006460F4600210D20FFF794F91C
:1010800080211220FFF79BF980211320FFF797F9A9
:1010900008210846FFF7B0F96846067470214174CC
:1010A000002405E0395D04AAA01C1154601CC4B2E0
:1010B000052CF7DB0120FFF772FAFFF78FF901A883
:1010C00002AB072204A900900C20FFF7D1F90546D6
:1010D000012D03D16846017A08980170284609B0AD
:1010E000F0BD1FB5502168460173002141730D20EA
:1010F000FFF75AF980211220FFF761F980211320B0
:10110000FFF75DF908210846FFF776F90120FFF7A0
:1011100046FAFFF763F901A802AB022203A9009087
:101120000420FFF7A5F90446204604B010BDF8B529
:1011300006460D4617460320FFF76DF90020FFF71E
:1011400059FA3046FFF7E9FE0446002C00D1F8BDFD
:101150003078C021084210D129469320FFF745FF7F
:101160000446002C00D1F2E73A4629469320FFF7C7
:101170007FFF0446002C00D1E9E73078C021084009
:10118000402821D129469320FFF72FFF0446002C49
:1011900000D1DCE73A4629469320FFF769FF044671
:1011A000002C00D1D3E7691D9520FFF71EFF0446F0
:1011B000002C00D1CBE77A1C691D9520FFF758FF62
:1011C0000446002C00D1C2E73078C02108408028B6
:1011D00034D129469320FFF708FF0446002C00D1A4
:1011E000B5E73A4629469320FFF742FF0446002C14
:1011F00000D1ACE7691D9520FFF7F7FE0446002CEF
:1012000000D1A4E77A1C691D9520FFF731FF044641
:10121000002C00D19BE729460A319720FFF7E5FE15
:101220000446002C00D192E7BA1C29460A319720C7
:10123000FFF71EFF0446002C00D188E7204686E712
:1012400030B502461346002002E01D785B1C2818CA
:101250000C46491E002CF8D130BD30B502460B4675
:1012600015460024002100BF02E0685C4440491C90
:101270009942FAD3E043C0B230BD07E0002100E05C
:10128000491CFF22B9329142FAD3401E0028F5D101
:10129000704770B586B005460A20FFF780F95020E8
:1012A00069460874002404E0295D04AA601C1154F6
:1012B000C4B2042CF8DB02A803AB052204A90090F9
:1012C0000C20FFF7D5F80646304606B070BDFEB5D7
:1012D00005460C4616460A20FFF761F905216846C7
:1012E000017100214171082181712346032201A966
:1012F0000C200095FFF7BCF80746012F04D104220B
:10130000611C304600F060FA3846FEBDFEB5054669
:101310000C4616460A20FFF742F90521684601717E
:101320000021417181712346032201A90C200095FF
:10133000FFF79EF80746012F04D10422611C3046B6
:1013400000F042FA3846FEBDF7B584B005460E46B9
:101350001420FFF724F91D2069460871002404E0D9
:10136000295D01AA601C1154C4B2042CF8DB0021D1
:1013700068464172082181720121C1720221017304
:101380000096092201A90C20069BFFF771F8074679
:10139000384607B0F0BDFEB504460D460F20FFF7F6
:1013A000FEF80021684601713621417100218171EA
:1013B000C171082101722B46052201A90C2000945D
:1013C000FFF756F806463046FEBD000010B5D2487D
:1013D0000178401CFFF742FB10BD1CB5FFF76EFA09
:1013E000CE4800680121C9020843CC490860CC48B6
:1013F000006804210843CA490860FEF781FFFFF72F
:10140000D7FAFEF79CFF01906946087901286FD151
:10141000C448C5490860C548FFF72FFF0120C00236
:10142000C1490860C248006820218843C04908605B
:101430006FE1C0480068002873D10420BE490861EC
:10144000BE4800780128F3D10020BC490870BC4890
:101450000078030000F0B7FA08FA050F2D4D6683F7
:10146000D0FA3320AC49087008460278B549401CD0
:1014700000F0AAF9F4E0B44AB449B548FFF757FEC2
:10148000019069460879012809D10422AF49A24890
:10149000401C00F099F904209F49087008E00522DB
:1014A000ACA19D48401C00F08FF905209A490870B6
:1014B000D6E0A64BA94A01210020FFF76BFB019063
:1014C00069460879012809D10922A5A19248401C42
:1014D00000F07AF909209049087008E005229DA1E2
:1014E0008D48401C00F070F905208B490870B7E06A
:1014F00010E18949491C0420FFF716FC0190694658
:101500000879012803D110208349087008E00522DA
:1015100090A18148401C00F057F905207E490870D1
:101520009EE0A1E091490420FFF779FB0190694614
:101530000879012809D10F228DA17748401C00F0BD
:1015400043F90F207449087008E0052281A1724810
:10155000401C00F039F905206F49087080E0FFF762
:1015600090F8002000900120FFF744F80320FEF7D8
:1015700052FF834A6849491C6846FFF7A8FE01905C
:10158000009860282ED1644A521C69467C48FFF7B7
:10159000DBFE019069460879012819D15E49491C92
:1015A0006846FFF7F8FE019069460879012805D1E1
:1015B00000984005000E584908701CE00B2271A1EC
:1015C0005548401C00F000F90B205349087012E008
:1015D0000C226FA15048401C00F0F6F80C204E4938
:1015E000087008E009226DA14B48401C00F0ECF89F
:1015F00009204949087033E012226BA14648401C7B
:1016000000F0E2F8122044490870FFF7DFFE1BE00B
:101610004D4A4E494E48FFF78AFD019069460879C8
:1016200001280ED13F48404908607D20C000FFF7E7
:1016300024FE0120C0023C4908607D20C000FFF765
:101640001CFE0020FEF7E7FEE2E7FFE70A225BA1AF
:101650003148401C00F0B8F80A202F49087000BF3C
:1016600000BFFFF7B3FE54E00420C04332490861D5
:101670000124354A35493648FFF759FD019069463E
:10168000087901281BD00224FEF7FBFF0020009000
:101690000120FEF7AFFF0320FEF7BDFE384A1E49CA
:1016A000491C6846FFF713FE019069460879012836
:1016B00005D1194A521C3248FFF746FE0190684690
:1016C0000079012822D11748174908607D20C00001
:1016D000FFF7D3FD0120C002134908607D20C00040
:1016E000FFF7CBFD012C06D1042218490A48401C03
:1016F00000F06AF805E0042221490748401C00F088
:1017000063F8042004490870FFF760FE0020FEF72C
:1017100082FE8EE600201CBD5800001000800150A3
:1017200000800350FFF7FFFF00200150102700004A
:1017300000800050800000500000035004000010A2
:10174000BC0000100F000010080000102001001065
:101750000600001045525221000000004200001017
:1017600041757468204F6B21000000004800001094
:1017700057726974652044617461204F6B210000C9
:101780000B000010476574556964455252210000F2
:1017900053656C65637420455252210057555020A3
:1017A0004552522100000000436172642044657478
:1017B000656374204D6F646521000000436F6465AC
:1017C0002045525221000000F8B5042A2CD383078B
:1017D00012D00B78491C0370401C521E83070BD09B
:1017E0000B78491C0370401C521E830704D00B78F1
:1017F000491C0370401C521E8B079B0F05D0C91A51
:10180000DF002023DE1B08C90AE0FEF7ADFCF8BDAF
:101810001D4608C9FD401C46B4402C4310C0121F91
:10182000042AF5D2F308C91A521EF0D40B78491CC9
:101830000370401C521EEAD40B78491C0370401CF4
:10184000521EE4D409780170F8BD002203098B42CE
:101850002CD3030A8B4211D300239C464EE003464F
:101860000B433CD4002243088B4231D303098B4203
:101870001CD3030A8B4201D394463FE0C3098B4239
:1018800001D3CB01C01A524183098B4201D38B0192
:10189000C01A524143098B4201D34B01C01A524135
:1018A00003098B4201D30B01C01A5241C3088B427A
:1018B00001D3CB00C01A524183088B4201D38B0065
:1018C000C01A524143088B4201D34B00C01A524107
:1018D000411A00D201465241104670475DE0CA0FDE
:1018E00000D04942031000D34042534000229C469E
:1018F00003098B422DD3030A8B4212D3FC228901A8
:1019000012BA030A8B420CD3890192118B4208D37D
:10191000890192118B4204D389013AD0921100E0DF
:101920008909C3098B4201D3CB01C01A52418309F3
:101930008B4201D38B01C01A524143098B4201D320
:101940004B01C01A524103098B4201D30B01C01A4B
:101950005241C3088B4201D3CB00C01A52418308C5
:101960008B4201D38B00C01A5241D9D243088B421B
:1019700001D34B00C01A5241411A00D201466346BE
:1019800052415B10104601D34042002B00D5494222
:10199000704763465B1000D3404201B50020C0464B
:1019A000C04602BD0446C046C0462046FEF7D5FBF1
:1019B000004870473001001001491820ABBEFEE717
:1019C00026000200704730B47446641E2578641CFB
:1019D000AB4204D3635D5B00E31830BC18471D467F
:1019E000F8E70000041A0000000000105800000092
:1019F000040100005C1A00005800001038030000C9
:101A000020010000006CDC0200000000000000006B
:101A1000000000464D3137353230205245414445B3
:101A200052204943204C5043313131342F3330312F
:101A30002044454D4F2056312E3020323031342F46
:101A400030372F313600FFFFFFFFFFFF0102030495
:0C1A5000050607080910111213141516E2
:04000005000000C136
:00000001FF
